{
  "contractName": "Wallet",
  "abi": [
    {
      "inputs": [],
      "stateMutability": "nonpayable",
      "type": "constructor"
    },
    {
      "inputs": [
        {
          "internalType": "address",
          "name": "",
          "type": "address"
        }
      ],
      "name": "balances",
      "outputs": [
        {
          "internalType": "uint256",
          "name": "",
          "type": "uint256"
        }
      ],
      "stateMutability": "view",
      "type": "function",
      "constant": true
    },
    {
      "inputs": [],
      "name": "owner",
      "outputs": [
        {
          "internalType": "address",
          "name": "",
          "type": "address"
        }
      ],
      "stateMutability": "view",
      "type": "function",
      "constant": true
    },
    {
      "inputs": [],
      "name": "deposit",
      "outputs": [],
      "stateMutability": "payable",
      "type": "function",
      "payable": true
    },
    {
      "inputs": [
        {
          "internalType": "uint256",
          "name": "amount",
          "type": "uint256"
        }
      ],
      "name": "withdraw",
      "outputs": [],
      "stateMutability": "nonpayable",
      "type": "function"
    },
    {
      "inputs": [],
      "name": "checkBalance",
      "outputs": [
        {
          "internalType": "uint256",
          "name": "",
          "type": "uint256"
        }
      ],
      "stateMutability": "view",
      "type": "function",
      "constant": true
    }
  ],
  "bytecode": "0x608060405234801561001057600080fd5b50600080546001600160a01b03191633179055610330806100326000396000f3fe60806040526004361061004a5760003560e01c806327e235e31461004f5780632e1a7d4d146100855780638da5cb5b146100a7578063c71daccb146100c9578063d0e30db0146100de575b600080fd5b34801561005b57600080fd5b5061006f61006a3660046101ed565b6100e6565b60405161007c91906102ac565b60405180910390f35b34801561009157600080fd5b506100a56100a036600461021b565b6100f8565b005b3480156100b357600080fd5b506100bc610185565b60405161007c9190610233565b3480156100d557600080fd5b5061006f610194565b6100a56101a7565b60016020526000908152604090205481565b336000908152600160205260409020548111156101305760405162461bcd60e51b815260040161012790610247565b60405180910390fd5b336000908152600160205260408120805483929061014f9084906102cd565b9091555050604051339082156108fc029083906000818181858888f19350505050158015610181573d6000803e3d6000fd5b5050565b6000546001600160a01b031681565b3360009081526001602052604090205490565b600034116101c75760405162461bcd60e51b815260040161012790610275565b33600090815260016020526040812080543492906101e69084906102b5565b9091555050565b6000602082840312156101fe578081fd5b81356001600160a01b0381168114610214578182fd5b9392505050565b60006020828403121561022c578081fd5b5035919050565b6001600160a01b0391909116815260200190565b602080825260149082015273496e73756666696369656e742062616c616e636560601b604082015260600190565b6020808252601e908201527f4465706f736974206d7573742062652067726561746572207468616e20300000604082015260600190565b90815260200190565b600082198211156102c8576102c86102e4565b500190565b6000828210156102df576102df6102e4565b500390565b634e487b7160e01b600052601160045260246000fdfea264697066735822122076efd4bd5912ac5a53dfe14480ee4efd6f629e15242360e6ea58a8f6f7638e6e64736f6c63430008000033",
  "immutableReferences": {},
  "source": "// SPDX-License-Identifier: MIT\r\npragma solidity ^0.8.0;\r\n\r\ncontract Wallet {\r\n    address public owner;\r\n    mapping(address => uint) public balances;\r\n\r\n    constructor() {\r\n        owner = msg.sender;\r\n    }\r\n\r\n    function deposit() public payable {\r\n        require(msg.value > 0, \"Deposit must be greater than 0\");\r\n        balances[msg.sender] += msg.value;\r\n    }\r\n\r\n    function withdraw(uint amount) public {\r\n        require(balances[msg.sender] >= amount, \"Insufficient balance\");\r\n        balances[msg.sender] -= amount;\r\n        payable(msg.sender).transfer(amount);\r\n    }\r\n\r\n    function checkBalance() public view returns (uint) {\r\n        return balances[msg.sender];\r\n    }\r\n}\r\n",
  "sourcePath": "C:\\Users\\VISWA\\Desktop\\blockchain-wallet\\contracts\\Wallet.sol",
  "compiler": {
    "name": "solc",
    "version": "0.8.0+commit.c7dfd78e.Emscripten.clang"
  },
  "schemaVersion": "3.4.16",
  "updatedAt": "2025-01-04T09:40:02.547Z",
  "networkType": "ethereum",
  "devdoc": {
    "kind": "dev",
    "methods": {},
    "version": 1
  },
  "userdoc": {
    "kind": "user",
    "methods": {},
    "version": 1
  }
}